{
  "_format": "hh-sol-artifact-1",
  "contractName": "Payper",
  "sourceName": "contracts/Payper.sol",
  "abi": [
    {
      "anonymous": false,
      "inputs": [
        {
          "indexed": false,
          "internalType": "address",
          "name": "owner",
          "type": "address"
        },
        {
          "indexed": false,
          "internalType": "string",
          "name": "name",
          "type": "string"
        }
      ],
      "name": "Registered",
      "type": "event"
    },
    {
      "inputs": [
        {
          "internalType": "string",
          "name": "name",
          "type": "string"
        }
      ],
      "name": "checkNameExists",
      "outputs": [
        {
          "internalType": "bool",
          "name": "",
          "type": "bool"
        }
      ],
      "stateMutability": "view",
      "type": "function"
    },
    {
      "inputs": [
        {
          "internalType": "address",
          "name": "from",
          "type": "address"
        },
        {
          "internalType": "uint256",
          "name": "amount",
          "type": "uint256"
        },
        {
          "internalType": "uint256",
          "name": "stableIndex",
          "type": "uint256"
        },
        {
          "internalType": "string",
          "name": "_name",
          "type": "string"
        }
      ],
      "name": "recordTransaction",
      "outputs": [],
      "stateMutability": "nonpayable",
      "type": "function"
    },
    {
      "inputs": [
        {
          "internalType": "string",
          "name": "name",
          "type": "string"
        },
        {
          "internalType": "uint256",
          "name": "_stableID",
          "type": "uint256"
        }
      ],
      "name": "registerName",
      "outputs": [],
      "stateMutability": "payable",
      "type": "function"
    },
    {
      "inputs": [
        {
          "internalType": "string",
          "name": "name",
          "type": "string"
        }
      ],
      "name": "resolveName",
      "outputs": [
        {
          "internalType": "address",
          "name": "",
          "type": "address"
        }
      ],
      "stateMutability": "view",
      "type": "function"
    },
    {
      "inputs": [
        {
          "internalType": "uint256",
          "name": "newPrice",
          "type": "uint256"
        }
      ],
      "name": "setMintPrice",
      "outputs": [],
      "stateMutability": "nonpayable",
      "type": "function"
    }
  ],
  "bytecode": "0x60806040526706f05b59d3b2000060035534801561001c57600080fd5b50610a658061002c6000396000f3fe60806040526004361061004a5760003560e01c80632ae09c681461004f57806385314cec1461008c578063bc19bce5146100b5578063f1ba4db8146100f2578063f4a0a5281461010e575b600080fd5b34801561005b57600080fd5b5061007660048036038101906100719190610682565b610137565b6040516100839190610887565b60405180910390f35b34801561009857600080fd5b506100b360048036038101906100ae9190610602565b6101c1565b005b3480156100c157600080fd5b506100dc60048036038101906100d79190610682565b610352565b6040516100e9919061083a565b60405180910390f35b61010c600480360381019061010791906106c7565b6103e6565b005b34801561011a57600080fd5b506101356004803603810190610130919061071f565b610538565b005b60008073ffffffffffffffffffffffffffffffffffffffff1660008484604051610162929190610821565b908152602001604051809103902060009054906101000a900473ffffffffffffffffffffffffffffffffffffffff1673ffffffffffffffffffffffffffffffffffffffff1614156101b657600090506101bb565b600190505b92915050565b600282826040516101d3929190610821565b90815260200160405180910390206040518060a001604052808773ffffffffffffffffffffffffffffffffffffffff1681526020016000858560405161021a929190610821565b908152602001604051809103902060009054906101000a900473ffffffffffffffffffffffffffffffffffffffff1673ffffffffffffffffffffffffffffffffffffffff16815260200186815260200185815260200142815250908060018154018082558091505060019003906000526020600020906005020160009091909190915060008201518160000160006101000a81548173ffffffffffffffffffffffffffffffffffffffff021916908373ffffffffffffffffffffffffffffffffffffffff16021790555060208201518160010160006101000a81548173ffffffffffffffffffffffffffffffffffffffff021916908373ffffffffffffffffffffffffffffffffffffffff16021790555060408201518160020155606082015181600301556080820151816004015550505050505050565b600061035e8383610137565b61039d576040517f08c379a0000000000000000000000000000000000000000000000000000000008152600401610394906108a2565b60405180910390fd5b600083836040516103af929190610821565b908152602001604051809103902060009054906101000a900473ffffffffffffffffffffffffffffffffffffffff16905092915050565b600354341461042a576040517f08c379a0000000000000000000000000000000000000000000000000000000008152600401610421906108c2565b60405180910390fd5b6104348383610137565b15610474576040517f08c379a000000000000000000000000000000000000000000000000000000000815260040161046b906108e2565b60405180910390fd5b8060018484604051610487929190610821565b90815260200160405180910390208190555033600084846040516104ac929190610821565b908152602001604051809103902060006101000a81548173ffffffffffffffffffffffffffffffffffffffff021916908373ffffffffffffffffffffffffffffffffffffffff1602179055507fb3eccf73f39b1c07947c780b2b39df2a1bb058b4037b0a42d0881ca1a028a13233848460405161052b93929190610855565b60405180910390a1505050565b7328172273cc1e0395f3473ec6ed062b6fdfb1594073ffffffffffffffffffffffffffffffffffffffff163373ffffffffffffffffffffffffffffffffffffffff161461058457600080fd5b8060038190555050565b60008135905061059d81610a01565b92915050565b60008083601f8401126105b557600080fd5b8235905067ffffffffffffffff8111156105ce57600080fd5b6020830191508360018202830111156105e657600080fd5b9250929050565b6000813590506105fc81610a18565b92915050565b60008060008060006080868803121561061a57600080fd5b60006106288882890161058e565b9550506020610639888289016105ed565b945050604061064a888289016105ed565b935050606086013567ffffffffffffffff81111561066757600080fd5b610673888289016105a3565b92509250509295509295909350565b6000806020838503121561069557600080fd5b600083013567ffffffffffffffff8111156106af57600080fd5b6106bb858286016105a3565b92509250509250929050565b6000806000604084860312156106dc57600080fd5b600084013567ffffffffffffffff8111156106f657600080fd5b610702868287016105a3565b93509350506020610715868287016105ed565b9150509250925092565b60006020828403121561073157600080fd5b600061073f848285016105ed565b91505092915050565b6107518161091e565b82525050565b61076081610930565b82525050565b60006107728385610902565b935061077f838584610966565b61078883610975565b840190509392505050565b600061079f8385610913565b93506107ac838584610966565b82840190509392505050565b60006107c5601283610902565b91506107d082610986565b602082019050919050565b60006107e8601983610902565b91506107f3826109af565b602082019050919050565b600061080b601a83610902565b9150610816826109d8565b602082019050919050565b600061082e828486610793565b91508190509392505050565b600060208201905061084f6000830184610748565b92915050565b600060408201905061086a6000830186610748565b818103602083015261087d818486610766565b9050949350505050565b600060208201905061089c6000830184610757565b92915050565b600060208201905081810360008301526108bb816107b8565b9050919050565b600060208201905081810360008301526108db816107db565b9050919050565b600060208201905081810360008301526108fb816107fe565b9050919050565b600082825260208201905092915050565b600081905092915050565b60006109298261093c565b9050919050565b60008115159050919050565b600073ffffffffffffffffffffffffffffffffffffffff82169050919050565b6000819050919050565b82818337600083830152505050565b6000601f19601f8301169050919050565b7f4e616d6520646f65736e27742065786973740000000000000000000000000000600082015250565b7f4d696e74207072696365206973206e6f7420636f727265637400000000000000600082015250565b7f4e616d6520697320616c72656164792072656769737465726564000000000000600082015250565b610a0a8161091e565b8114610a1557600080fd5b50565b610a218161095c565b8114610a2c57600080fd5b5056fea26469706673582212202d77a6d9f8d66f110b4e17b8170824758338e8676a0a5e55c1412ed8e30693a664736f6c63430008040033",
  "linkReferences": {},
  "deployedLinkReferences": {}
}